:10000000FC1F0020F900000003E2FF1F03E2FF1FB6
:1000100003E2FF1F03E2FF1F03E2FF1F01E2FF1FD6
:1000200001E2FF1F01E2FF1F01E2FF1F03E2FF1FCA
:1000300003E2FF1F01E2FF1F03E2FF1F03E2FF1FB6
:1000400003E2FF1F03E2FF1F03E2FF1F03E2FF1FA4
:1000500003E2FF1F03E2FF1F03E2FF1F03E2FF1F94
:1000600003E2FF1F03E2FF1F03E2FF1F03E2FF1F84
:1000700003E2FF1F03E2FF1F03E2FF1F03E2FF1F74
:10008000B9E6FF1F03E2FF1F03E2FF1F03E2FF1FAA
:1000900003E2FF1F03E2FF1F03E2FF1F03E2FF1F54
:1000A00003E2FF1F03E2FF1F03E2FF1F03E2FF1F44
:1000B00003E2FF1F03E2FF1F03E2FF1F03E2FF1F34
:1000C00003E2FF1F03E2FF1F03E2FF1F45E2FF1FE2
:1000D00003E2FF1F03E2FF1F03E2FF1F03E2FF1F14
:1000E00003E2FF1F03E2FF1F03E2FF1F03E2FF1F04
:1000F00003E2FF1F03E2FF1F3D4B4CF220521A8028
:100100004DF628121A8000BF00BFD32223F80E2C10
:1001100000221A81072223F80A2C4FF4A64223F862
:10012000082CA3F51F43D63B324A1A60324A5A6064
:1001300003F5533303F2CA331A78110703D51A783B
:1001400042F008021A702D4B0A221A70A3F6FF73B0
:1001500024221A70A02203F8012C294B1A78920746
:10016000FBD51A78D006FCD41A7802F00C02082AC3
:10017000FAD1244B03221A7040225A700023224ADB
:1001800022499818884204D2214959589950043379
:10019000F5E7204A204B9A424FF0000302D242F882
:1001A000043BF7E71D491E4A595899500433B3F5EB
:1001B000807FF7D11B4B1A60114B1A789106FBD543
:1001C0001A785206FCD5184B184A1A60184B202290
:1001D0001A700B4B1B7803F00C030C2BF9D1154B49
:1001E00002221A60443B144A1A6062B600F028B832
:1001F0000E200540823F04000100002B0050064005
:10020000064006400440064000E2FF1F40ECFF1F8E
:100210001004000000F0FF1F34F9FF1F0000000071
:1002200000F0FF1F08ED00E04480044000000311CF
:100230000040064048800440C0100500FFFFFFFF5B
:1002400001B40248844601BC604700BFBDE7FF1F00
:10025000FFFFFFFFFFFFFFFFFFFFFFFFFFFFFFFFAE
:10026000FFFFFFFFFFFFFFFFFFFFFFFFFFFFFFFF9E
:10027000FFFFFFFFFFFFFFFFFFFFFFFFFFFFFFFF8E
:10028000FFFFFFFFFFFFFFFFFFFFFFFFFFFFFFFF7E
:10029000FFFFFFFFFFFFFFFFFFFFFFFFFFFFFFFF6E
:1002A000FFFFFFFFFFFFFFFFFFFFFFFFFFFFFFFF5E
:1002B000FFFFFFFFFFFFFFFFFFFFFFFFFFFFFFFF4E
:1002C000FFFFFFFFFFFFFFFFFFFFFFFFFFFFFFFF3E
:1002D000FFFFFFFFFFFFFFFFFFFFFFFFFFFFFFFF2E
:1002E000FFFFFFFFFFFFFFFFFFFFFFFFFFFFFFFF1E
:1002F000FFFFFFFFFFFFFFFFFFFFFFFFFFFFFFFF0E
:10030000FFFFFFFFFFFFFFFFFFFFFFFFFFFFFFFFFD
:10031000FFFFFFFFFFFFFFFFFFFFFFFFFFFFFFFFED
:10032000FFFFFFFFFFFFFFFFFFFFFFFFFFFFFFFFDD
:10033000FFFFFFFFFFFFFFFFFFFFFFFFFFFFFFFFCD
:10034000FFFFFFFFFFFFFFFFFFFFFFFFFFFFFFFFBD
:10035000FFFFFFFFFFFFFFFFFFFFFFFFFFFFFFFFAD
:10036000FFFFFFFFFFFFFFFFFFFFFFFFFFFFFFFF9D
:10037000FFFFFFFFFFFFFFFFFFFFFFFFFFFFFFFF8D
:10038000FFFFFFFFFFFFFFFFFFFFFFFFFFFFFFFF7D
:10039000FFFFFFFFFFFFFFFFFFFFFFFFFFFFFFFF6D
:1003A000FFFFFFFFFFFFFFFFFFFFFFFFFFFFFFFF5D
:1003B000FFFFFFFFFFFFFFFFFFFFFFFFFFFFFFFF4D
:1003C000FFFFFFFFFFFFFFFFFFFFFFFFFFFFFFFF3D
:1003D000FFFFFFFFFFFFFFFFFFFFFFFFFFFFFFFF2D
:1003E000FFFFFFFFFFFFFFFFFFFFFFFFFFFFFFFF1D
:1003F000FFFFFFFFFFFFFFFFFFFFFFFFFFFFFFFF0D
:10040000FFFFFFFFFFFFFFFFFEFFFFFFFEFFFF40BD
:10041000FEE7FEE7F0B50C4B0C4C1A7842F00205F3
:1004200004EBC50682F00102706009481A70067874
:10043000002E0CBF8827C82786F0010647EA014135
:10044000067044F83510F0BD48F4FF1F00E0FF1FB0
:100450009FF4FF1F2DE9F743944E3378DBB213F07E
:10046000040F18BF042103F0080018BF3170324692
:1004700000F0FF01002800F093818D4B1F78FFB240
:100480003B0940F08A818B4CBF0804EBC7025168DE
:1004900054F83720C2F38302092A00F057810D2A4D
:1004A00003D0012A40F076811CE1834D0A68496837
:1004B0006960824944F8371081492A600120087038
:1004C000804F81493B6092B2B2F5A06F0B8067D03C
:1004D00024D840F221139A4200F08980B2F5917F2E
:1004E0000CD2822A3FD0B2F5817F4BD0802A40F0D7
:1004F000A880764C002323706370A5E040F2A133FE
:100500009A4200F0848040F221439A4200F08680B3
:1005100040F202339A4240F0948043E040F281611D
:100520008A420BD8B2F5D06F4AD240F2A1539A4218
:1005300079D040F221639A427DD082E0B2F5106F0B
:100540000ED007D8B2F5086F7BD1614B5F4C1B789A
:1005500023706EE0A2F5FD42403A012A43D970E0D3
:10056000A9785B4A1BE0AA885A4B0AB10F2210E116
:10057000564C0022227062701B78980764D50123C4
:10058000237061E0AA8851065BD14B4B5B88002B3E
:1005900057D191004F4A0A44117821F0020111709D
:1005A0001C4658E0AA8853064BD1434B5B88002B6E
:1005B00047D19100474A0A44117841F00201EEE721
:1005C0006A88454B53F8084CA3F10C01002C38D035
:1005D0000C3333F8180C9042F4D1120A032A0CBFE2
:1005E00023780B8937E0AB88042B2AD12EE0AB8827
:1005F0003BBBE98849B9688800910A460B4600F080
:10060000AFFA10B9334B0F221A700023C8E7AB883A
:10061000BBB92E4800F040FBD8B912E0AB8883B9D3
:1006200000F06EFB0BE0AB885BB900F093FA274C4F
:10063000207001230FE0AB881BB900F077FB002886
:10064000E3D10F22234BA4E0022304E02823234C10
:1006500001E01E4C0623B5F80680434538BF984696
:10066000B8F1400F34BF4546402520462946FFF7E4
:10067000D1FEB8EB05082C4404D1402D40F08A800F
:10068000454604E0B8F1400F34BF454640252046BA
:100690002946FFF7BFFEB8EB05082C4401D1402DD9
:1006A00078D10F4A3C60A2F8008073E080200740B8
:1006B0009020074000E0FF1F8CF4FF1F80004000E7
:1006C0009FF4FF1F00F4FF1F04F4FF1F96F4FF1FA9
:1006D0009EF4FF1FC020074040EBFF1FE0EBFF1F11
:1006E00094F4FF1F4A48028840F221139A4229D10C
:1006F0008388484A1BB11588C3889D421FD8C38888
:10070000128840880091C2EB0308B8F1400F28BF5F
:100710004FF04008194643463E4D00F021FA70B1B3
:100720002B8898443A4BDB881FFA88F84345A5F894
:10073000008007D838480021FFF76CFE02E0374BF5
:100740000F221A70364B44F8373023E0354F3D689E
:10075000B5B1DFF8F480B8F80090B9F1400F34BFBC
:100760004C46402428462146FFF754FEC4EB0903BB
:100770009BB2A8F800300BB9402C00D12B193B607C
:10078000234B1A88B2F5A06F04D100225A709A78D0
:10079000254B1A70254B01221A70082333705BE633
:1007A000DC071FD521481E4C214D1F4A0223037030
:1007B000204B1970204B1C609C60204CDC605D60FD
:1007C00019619961154B0D241C701D4CFF2323707A
:1007D0003370117002F80C3C1A4B9F221A700123DF
:1007E000037012E0180604D50C490D200870802112
:1007F0003170990705D512490878C0B208700221F6
:100800001170DB0644BF1023137003B0BDE8F08302
:100810008CF4FF1F04F4FF1F96F4FF1FC020074055
:100820008000400000F4FF1F9820074094200740FC
:1008300008F4FF1F48F4FF1F00E0FF1F4CF4FF1FE8
:10084000882007408420074094F4FF1F184B1A6843
:1008500042F480221A6003F52833D83380221A70BC
:100860001978144A0906FBD4134B1449C3F3072023
:100870000870C3F307401B0E08750B76FF2301F8C1
:100880001C3C01F8143C01F88C3C137843F0400305
:1008900013700021012302F8783C02F80C1C02F8C6
:1008A000883C074B08221A60064B10221A707047CA
:1008B000348004400C21074000E0FF1F9C200740CB
:1008C00004E100E008210740F0B52E4A137813F048
:1008D000300F25D072B62C4B2C4C1B7803F0FF0048
:1008E0002BB923782A4B4021197062B618E062B602
:1008F000284B294D19782E78C9B2F6B21D464B1CEB
:10090000DBB2402B277828BF0023B342FFB202D0CE
:100910002249CF541946431E13F0FF00EFD129702E
:100920001F4B1978C9B20D0620D513781C061DD5AA
:100930001C4B1D481E780378F6B2DBB2B3420ED0D2
:100940000133DBB2402B1478184C28BF0023E55C40
:100950000E4CEDB225700D342478072CEED90370BF
:100960001378180602D50E4B7C201870490608D55E
:1009700013785B0605D50E4B00221A70084B3C22FB
:100980001A70F0BD04A0064016A0064007A006405D
:1009900011A0064022F5FF1FA1F4FF1FE2F4FF1F84
:1009A00003A0064024F5FF1F23F5FF1FA2F4FF1F3D
:1009B000A0F4FF1F72B6044B4AF202621A804BF297
:1009C00080421A8062B670470C2005402D492E4A9D
:1009D00038B540F2071313600B602C4B196821F0F7
:1009E000A00119602A49096811F0A00F0BD0294C09
:1009F0006168A1F58051B1F5F83F04D2264D274832
:100A0000296881422ED14FF4A27111601A6842F018
:100A100040021A60224B1A6842F040021A6000F04D
:100A200097F8FFF713FF00F095F8072806D072B685
:100A300000F0F8F862B6FFF7BDFFF4E7164B0022AE
:100A40001A600B24174B184D40221A60FFF7B2FFB3
:100A5000013DFBD1013CF5D1FFF7ACFF72B6134B62
:100A60001C70FEE772B6124B1C60FFF7A3FF002359
:100A70002B60226861684FF0FF339E469546084719
:100A8000002038BD1CC0044018C00440D4F00F4002
:100A9000D0F00F4000100000FC1F0020464362749D
:100AA000C0F00F40CCF00F40A086010008210740A5
:100AB00008ED00E00E4B06221A70C0F3074203F85F
:100AC000012CC0F30722C0B203F8022C03F8030C78
:100AD000CA781A718A78DA704A789A700A785A70E5
:100AE000702203F8072C802203F8072C704700BF00
:100AF00007000240030610B522D500F0400303F0C2
:100B0000FF043BB10F4B0A221A700F4B0E221A70D2
:100B1000002213E010F0300208D00A4B0A221A70AB
:100B2000094B08221A70094B1C7009E010F00100F3
:100B300007D0044B0A201870034B1970034B1A702E
:100B4000012010BD38ECFF1F31F9FF1F30F9FF1FE6
:100B500070470000014B1878704700BF38ECFF1F4A
:100B6000F0B5D418B4F5806F059E01D88C4205D934
:100B7000254B0A221A700822244B20E0244D2A44D7
:100B800000259D4203D0775D57550135F9E78C422A
:100B900038D11D4A1D4B1578022D114605D0052D63
:100BA00003D00A2111700F2209E01A4D2A7812068B
:100BB00002D5194F3A782AB10A220A700E221A7009
:100BC0000020F0BD1CB906220A701C701AE08402D5
:100BD000124804F580540460012611483E7009272C
:100BE0000770C4F30747240AE4B200F8017C00F858
:100BF000024C00F8032C70202870802028700320FD
:100C000008701A700120F0BD38ECFF1F31F9FF1F8A
:100C10002CF5FF1F0000024030F9FF1F28F5FF1FD1
:100C20000700024070B5174B174D18782B78012B31
:100C3000C0B202D0022B0FD070BD0421FFF75AFFC3
:100C4000F0B902232B70114B11491860114BBDE80C
:100C500070401868FFF72EBF0721FFF74BFF78B9E8
:100C60000A4E3468B4F5806F09D20A4B08491868F7
:100C7000214420440434FFF71DFF346070BD287008
:100C800070BD00BF0000024030F9FF1F2CF9FF1FAC
:100C90002CF5FF1F28F5FF1F70B5154D154E2B784D
:100CA000032B044615D3042B07D9062B11D1072398
:100CB0002B704FF47A7333600BE0FFF7B3FF2B78A0
:100CC0000A2B06D00C4B1B780BB9052300E004233C
:100CD0002B700A4B1B782370336863701A0A1B0C45
:100CE000E3702B7823710023A2706371012070BD23
:100CF00038ECFF1F3CECFF1F30F9FF1F31F9FF1FDD
:100D0000084B1A780A2A084A05D1022119700023D3
:100D10001370012070470A2119700F2313700020EF
:100D2000704700BF38ECFF1F31F9FF1F034B022251
:100D30001A70034B00221A700120704738ECFF1F15
:100D400031F9FF1F0001000088EBFF1F12000000B7
:100D500000020000B2EBFF1F1B00000000030000B8
:100D600034ECFF1F00000000010300009AEBFF1F9E
:100D7000000000000203000008ECFF1F000000005C
:100D8000EE030000CEEBFF1F00000000000000009B
:100D900000000000000000001201000200000040FE
:100DA000501DA960000101020001180342006C00FF
:100DB00069006E006B0069006E006C0061006200EB
:100DC000730009021B0001010280320904000000C7
:100DD000FE01020209210D10270004010100120387
:100DE0004D005300460054003100300030007E00BA
:100DF00028000000000104000100000000000000C5
:100E0000000157494E555342000000000000000009
:100E100000000000000000002C034C006900670087
:100E200068007400420075006400640079002000CE
:100E300042006F006F0074006C006F00610064007E
:100E400065007200040309040200000001000000B4
:10100000FC1F0020C51100008111000081110000AB
:101010008111000081110000811100009111000078
:101020009111000091110000911100008111000048
:101030008111000091110000811100008311000056
:10104000BD390000811100008111000081110000F4
:101050008111000081110000811100008111000048
:101060008111000081110000811100008111000038
:101070008111000081110000811100008111000028
:101080008111000081110000811100008111000018
:101090008111000081110000811100008111000008
:1010A00081110000811100008111000081110000F8
:1010B00081110000811100008111000081110000E8
:1010C000811100008111000081110000491D000004
:1010D00081110000811100008111000081110000C8
:1010E0001513000069130000F5130000B51400008B
:1010F0003D150000811100000348044B834202D0DB
:10110000034B03B118477047ACF5FF1FACF5FF1F49
:101110000000000005480649091A891001EBD17149
:10112000491002D0034B03B118477047ACF5FF1FBD
:10113000ACF5FF1F0000000010B5064C237843B942
:10114000FFF7DAFF044B13B10448AFF3008001232B
:10115000237010BDACF5FF1F000000004C480000DC
:1011600008B5044B1BB104490448AFF30080BDE847
:101170000840CFE700000000B0F5FF1F4C4800001A
:10118000FEE7024A136801331360704750F6FF1FF1
:1011900008B50B4D2C462B68580301D500F0D4FD43
:1011A0002368590501D5FFF7EBFF23681A0501D520
:1011B000FFF7E6FF2368DB04EDD5FFF7E1FFEAE781
:1011C0003480044038B5134A134B14498B4215D36D
:1011D000134B144A0021934215D3134B4BF67F3225
:1011E0001A60072243F8042C62B600F0DBFB0F4CB8
:1011F0000F4DAC420AD101F0FDFAFEE752F8040BA4
:1012000043F8040BE2E743F8041BE4E754F8043B1B
:101210009847EEE74C48000080F1FF1FACF5FF1F38
:10122000ACF5FF1FF410002014E000E0404800007F
:1012300048480000024A1368184410601846704776
:1012400080F1FF1FEFF31380A8B9EFF31082A2B96A
:10125000EFF3058353B10F2B0BD9084A985CEFF3DA
:10126000118353B1984228BF184670474FF48070DD
:10127000F5E71046F3E74FF0FF307047F0E300E08A
:10128000084B4FF480721A604FF400721A604FF4EA
:1012900080621A604FF400621A604FF480521A6044
:1012A000704700BF04E100E0212810B514D8042ADB
:1012B00012D80A4CA35C04EBC0041B04E46872B6A9
:1012C000226822F4702222601343054A43F080739F
:1012D00042F82010236062B610BD00BFE845000050
:1012E000C8F5FF1F094B03EBC003DA6872B6136839
:1012F00023F0877323F4803343F080731360044B2F
:10130000002243F8202062B6704700BFE845000085
:10131000C8F5FF1F124B10B51C681C60E00404D513
:10132000104BDA680AB1DB689847A10404D50D4B6D
:101330001A690AB11B699847A20604D5094B1A6EAF
:101340000AB11B6E9847E30608D5064BD3F88420F4
:1013500022B1D3F88430BDE81040184710BD00BF5B
:10136000A0900440C8F5FF1F204B10B51C681C60FE
:10137000E00304D51E4B1A680AB11B689847A10305
:1013800004D51B4B5A680AB15B689847E20704D53D
:10139000174B1A6C0AB11B6C9847A30704D5144B62
:1013A0005A6C0AB15B6C9847200704D5104B9A6CB5
:1013B0000AB19B6C9847610704D50D4BDA6C0AB1F2
:1013C000DB6C9847220304D5094B5A6E0AB15B6E59
:1013D0009847630308D5064BD3F8802022B1D3F891
:1013E0008030BDE81040184710BD00BFA0A00440E9
:1013F000C8F5FF1F2D4B10B51C681C60200704D5D5
:101400002B4B5A6A0AB15B6A9847E10604D5284B10
:101410009A6A0AB19B6A9847620604D5244BDA6A35
:101420000AB1DB6A9847230604D5214B1A6B0AB12F
:101430001B6B9847A00604D51D4B5A6B0AB15B6B1A
:101440009847E10704D51A4BDA6B0AB1DB6B984772
:10145000A20704D5164B9A6D0AB19B6D9847630796
:1014600004D5134BDA6D0AB1DB6D9847A00504D59E
:101470000F4BDA6E0AB1DB6E9847E10504D50C4BD1
:101480001A6F0AB11B6F9847620504D5084B5A6F53
:101490000AB15B6F9847230506D5054B9A6F1AB1C1
:1014A0009B6FBDE81040184710BD00BFA0B00440BE
:1014B000C8F5FF1F1F4B10B51C681C60E00704D562
:1014C0001D4B9A680AB19B689847210604D51A4BB0
:1014D0005A690AB15B699847E20604D5164B9A69C6
:1014E0000AB19B699847630704D5134BDA690AB1BF
:1014F000DB699847200704D50F4B1A6A0AB11B6AAB
:101500009847A10704D50C4B9A6B0AB19B6B98477F
:10151000A20604D5084B1A6D0AB11B6D98476306E5
:1015200006D5054B5A6D1AB15B6DBDE810401847E2
:1015300010BD00BFA0C00440C8F5FF1F0A4B10B586
:101540001C681C60A20704D5084B9A6E0AB19B6EFA
:101550009847E30706D5054BDA6F1AB1DB6FBDE894
:101560001040184710BD00BFA0D00440C8F5FF1FB1
:10157000014B1868704700BF00D00340044B054979
:1015800000221A600A60044A106010221A60704734
:1015900014D0034004D0034000D00340002810B50D
:1015A00015DB03024FF48072B3F5004F02F1FF31F7
:1015B00004D30129A3EB00040A4606D11B0A013A11
:1015C00043EA02230C4A136010BD2346ECE76FF098
:1015D000FF0343434FF48072B3F5014F02F1FF3133
:1015E00004D3012900EB03040A4603D11B0AC3F507
:1015F0008073E4E72346EFE70CD0034028B11028BE
:1016000028BF1020024B187070470120FAE700BF76
:1016100084F1FF1F10B500234FF4377242FA03F430
:101620008C4202D30133072BF8D1144C1C414FF6E6
:10163000FF7204EB5104B4FBF1F10139914228BF70
:101640001146C21E012A0AD80D4A0E4C0020106015
:1016500020600D48016043F00803136010BD172897
:10166000FCD80A4A22FA00F0C04310F00100F5D17C
:10167000074A084C106020600748EBE7006CDC026A
:101680000090034004900340089003406006F0007F
:10169000008003400480034008800340212814D8C0
:1016A0000C4B03EBC000836893F880223AB101220F
:1016B00011B183F88020704783F800217047C36818
:1016C0001A6819B142F003021A60704722F0020250
:1016D000FAE700BFE845000021289FBF044B03EB59
:1016E000C0039B6893F8000294BFC0B2002070470B
:1016F000E845000021280BD80B4B012903EBC00063
:10170000D0E9022305D182F880124FF4A2721A6048
:101710007047002082F8800211B94FF48072F6E71A
:1017200040F20312F3E700BFE845000038B5314B43
:101730001B7801250029044605FA03F208DC002184
:10174000FFF7ACFF20460121BDE83840FFF7D2BFCC
:10175000914201D32946F3E7C21ED0B2012894BFBB
:1017600025482648006800FB011020FA03F3142ADC
:1017700039D8DFE802F00B12161C3838202438382C
:1017800038383838383838282C3034001C4A136040
:101790001C4B4FF451721A6038BD1B4A13601B4B2F
:1017A000F7E71B4A13601B4B40F24442F3E71A4A27
:1017B00013601A4BF8E71A4A13601A4BF4E71A4AF7
:1017C00013601A4BF0E71A4A13601A4BECE71A4AF7
:1017D00013601A4BE8E71A4A13601A4BE4E71A4AF7
:1017E00013601A4BE0E77F29D4BF00210121204676
:1017F000A6E700BF84F1FF1F089003400880034064
:1018000010900340309004401890034034900440FE
:10181000488003401CC004403080034010C0044096
:10182000208003400CB004402880034010B00440E6
:101830003880034014C004404080034018C0044076
:101840001080034004B004401880034008B00440F6
:101850002DE9F04107460E4690460825012408EA86
:1018600004013846FFF71AFF01213046FFF716FF43
:1018700000213046FFF712FF6400013DE4B2EED1D3
:10188000BDE8F0812DE9F04107460E469046082458
:10189000802508EA05013846FFF700FF01213046A0
:1018A000FFF7FCFE00213046FFF7F8FE013C4FEA4F
:1018B0005505EED1BDE8F08112B91A46FFF7C8BF51
:1018C0001A46FFF7DFBF2DE9F04180460F46082694
:1018D0000025012438460121FFF7E0FE4046FFF7CE
:1018E000FBFE00B1254300213846FFF7D7FE640018
:1018F000013EE4B2EED12846BDE8F0812DE9F04189
:1019000080460F4608250024802638460121FFF72F
:10191000C5FE4046FFF7E0FE00B1344300213846E3
:10192000FFF7BCFE013D4FEA5606EED12046BDE86A
:10193000F0810AB9FFF7C7BFFFF7E0BF72B60C4BE3
:101940000C4A0D491B68D2F88820096862B6490123
:1019500002D5322B88BF0132C3F53B4330207F33A1
:10196000B3FBF0F34FF47A7000FB0230704700BF16
:1019700018E000E0C8F5FF1F04ED00E038B50446AC
:10198000FFF7DCFF054664B1FFF7D8FF401BB0F559
:101990007A7F03D3013C04D005F57A7500F0E4FEAC
:1019A000F2E738BD10B5FFF76BFC124B124A134C2F
:1019B00000204BF6FF711860596028231360936074
:1019C000136193611362936213639363092222602C
:1019D00004F58054043420600948016009490B6013
:1019E0008B60094B04201A60FFF7C8FFBDE8104068
:1019F00000F0DEBC048003400C8003400080034004
:101A0000089003400C9003400090034070B50646D8
:101A1000C1EBC104337853B9337863B1FFF78EFF5C
:101A20000546337853B9FFF789FF401B02E0013CBC
:101A3000F0D1002070BD013CEED1FAE7013CF0D1BD
:101A4000F7E770B50646C1EBC104337853B133787C
:101A500063B9FFF773FF0546337853B1FFF76EFFA5
:101A6000401B02E0013CF0D1002070BD013CEED1F2
:101A7000FAE7013CF0D1F7E721280CD8074B03EB3C
:101A8000C003986800F5007011B11146FFF7BEBFA2
:101A90001146FFF7D6BF0020704700BFE8450000A1
:101AA0007FB5184B184C40F222321A80174B1B6836
:101AB0000393174B1B680293164B1B680193164B3D
:101AC0001B6800936846154B0146002211F8015B24
:101AD00001326B40102A04FB03F3F7D1094C0A4E84
:101AE00000211A2510F8012B534073430131B3FB39
:101AF000F5F205FB12324132102924F8022FF1D100
:101B000004B070BDF2F1FF1F930100015480044046
:101B1000588004405C80044060800440C59D1C8166
:101B200070B50C4B0C4D1A7842F0020605EBC6045A
:101B300082F00102606058781A70002814BFC8242F
:101B4000882480F0010044EA0141587045F83610BD
:101B500070BD00BF54F6FF1F00E0FF1F10B5044C1E
:101B600063681BB100F002FE0028F9D110BD00BF70
:101B700054F6FF1F0138032807D8054B03EB8003F9
:101B80005868003018BF012070470020704700BF20
:101B900054F6FF1F431E032B10B50ED8084A02EB64
:101BA0008302506840B1416851600649048831F8A9
:101BB0001320121B21F8132010BD0020FCE700BFEA
:101BC00054F6FF1FE4100020431E032B10B510D85D
:101BD00072B6094A02EB8302506840B14168516015
:101BE0000649048831F81320121B21F8132062B62D
:101BF00010BD0020FCE700BF54F6FF1FE4100020DA
:101C0000013803280CD8074B03EB80035B6972B6DD
:101C100000200BB962B670471A885B681044F8E779
:101C20000020704754F6FF1F013803280BD872B606
:101C3000064B03EB800300205B690BB962B670476B
:101C400001305B68F9E70020704700BF54F6FF1FC2
:101C500030B472B6184C194A042314F8011B090752
:101C60001FD552F8331079B902EBC3010830486030
:101C7000134942F83310134A92F82430013B82F89A
:101C8000243062B630BC704743F0010152F8315045
:101C90003DB902EBC103083058600B4B42F83130BC
:101CA000E9E70433142BD8D162B6064B002283F83F
:101CB000242030BC00F0E2BB0047000000E0FF1F22
:101CC0008800400054F6FF1FC8004000421E032A4F
:101CD00010B52ED8400140F010031948184472B6D0
:101CE000184B9C1894F82540032C1AD8DFE804F010
:101CF000251302160524134410F0080F0A8883F8F0
:101D0000254001F10803436014BFC823882343EA38
:101D1000024303600CE008300224ECE7083004249E
:101D2000E9E792009818446924B941611344D962E3
:101D300062B610BDC06A4160F8E70324DBE700BF6C
:101D400000E0FF1F54F6FF1F2DE9F04FB64F87B09C
:101D5000B54B1C78E4B2610710D5B44B93F844300E
:101D600053B1B34A117801F0FF0329B1013BDBB253
:101D700013700BB900F0DAFC04233B7014F0080573
:101D800000F0C182AB4BAC4E1A78D2B214094FEAC4
:101D9000920840F0238256F8382006EBC803C2F3BD
:101DA0008302013A5B680C2A00F2ED81DFE812F051
:101DB000D501D501EB01EB01EB01EB01EB01EB01EF
:101DC000F101EB01EB01EB010D001C6859689B4B25
:101DD000964D46F83830A0B240F2A15300224FF0A1
:101DE000010C9842AC64E9642A653261B26185F8FD
:101DF00001C0AA4600F0958122D8B0F5817F00F09D
:101E00003F810DD8802800F00281822800F00581F2
:101E1000212813D189B2032910D185F864C040E18B
:101E200040F2A136B04200F06681B0F5A06F00F03C
:101E3000388140F20233984200F03581804B26E130
:101E4000B0F5106F23D010D8B0F5D06FF6D340F2B4
:101E50008162904240F23481B0F5086FEED195F87E
:101E6000442085F83C20624658E142F22123984202
:101E700000F03C8142F22133984200F0128142F29C
:101E800021039842DAD16F4B01221A707BE1DFF80F
:101E9000A881C4F3074285F8442044464FF0040962
:101EA000226A120603D5606A083800F0E7FA09F1E1
:101EB0000109B9F1140F04F10804F1D1DFF89C9184
:101EC00009F128030393604B019309F1500309F1D1
:101ED000210B09F11002029359F8040BD0B9029BAF
:101EE000146843F8040B49F8040C0293CCB9039B23
:101EF0009BF8001043F8044B0393019B42F8044BFA
:101F000023F8024B02390193032918D8DFE801F0C6
:101F1000136C136C4468049200F0B0FA2046049AE3
:101F2000DCE7616805922046049100F0A7FA049965
:101F3000059A0C46DAE74FF000038BF80030434B6C
:101F400099450BF1010BC7D10022414BDFF810B1CD
:101F500085F824200193019BDFF8089113F8010B09
:101F60000BF8040B01930307D94416D500F06EFA61
:101F700000283CD00830C8F824003648C8F82000B3
:101F800000F064FA49F0010CC8B306EBCC0E2B4B01
:101F900046F83C300830CEF804002F4B49F0020CD4
:101FA00049F0030200209B4546F83C0008F1200858
:101FB00046F83200CFD10246B5F84E80904528BF92
:101FC00090464646402E28BF402631462046FFF721
:101FD000A7FD3444B8EB060640F0AA80B8F13F0FE5
:101FE0007FF651AFB046A8E04FF00103A5E7C8F86F
:101FF00020009AF8240001308AF82400C0E746F84F
:102000003C009AF8240001308AF82400C5E785F8DE
:102010003C2085F83D20022280E088B20428084850
:1020200022D90F2303702EE78020074054F6FF1FAC
:1020300049F7FF1F9020074000E0FF1FC800400045
:10204000C020074094200740E410002068F6FF1FDE
:102050000047000088004000D420074058F6FF1FCA
:10206000C42007403CDFF8BF89B285F83C2085F8E2
:102070003D2010F821209407CDD585F83CC0CAE753
:1020800001F07F03042BB14B01D8220C02D00F22A8
:102090001A70F8E689B213F8210020F0020003F864
:1020A0002100144688E701F07F03042BA74BEED8EC
:1020B000220CECD189B213F8210040F00200EEE7C7
:1020C000A348C4F30F4289B24468002C3FF4B6AE73
:1020D0000688964208D143888B4205D1360A032EE2
:1020E0000CBF2278028967E70C30EDE79949C4F309
:1020F00007430B70D5E789B203297FF49FAE95F8AB
:10210000641085F83C2085F83E2085F83F2085F84E
:10211000412085F83DC085F8401006220AF13C04B4
:102120004AE789B203297FF489AE95F8642098E6DE
:10213000402EB04628BF4FF0400820464146FFF7EA
:10214000EFFCB6EB0806444403D1B8F1400F7FF42E
:102150009AAE2C65A5F8666095E67F4AB2F84810FD
:1021600042F2210291420BD17C4AD91D13F8010B96
:1021700002F8010B8B42F9D100210846FFF7D0FC91
:10218000774B46F83830774B01221A7008233B70A2
:10219000DEE5714D2E6DAEB1B5F866804446402C3B
:1021A00028BF4024214630462644A8EB0404A4B2AC
:1021B000FFF7B6FCA5F866401CB9B8F13F0F98BF11
:1021C00000262E65B5F84830B3F5A06FDBD10023AB
:1021D00085F8493095F84A20634B56E6454606EBAC
:1021E000C808631ED8F804C012F00802ACF1080059
:1021F000DCB24ED000F042F9574B03EB840C1819B7
:10220000DCF8141031B34A68CCF8142001F108024C
:10221000C8F8042090F82520032A07D8DFE802F048
:10222000021114172344032283F8252018F0080F05
:102230000A8814BFC823882343EA024346F835308E
:10224000A4E723440222EFE723440522ECE72344DA
:102250000422E9E790F82520032A13D801A151F8B8
:1022600022F000BF8D2100008D21000075220000AA
:102270007F2200002344002283F8252086E72344A0
:102280000122F9E718F0080F14BF032202222344A9
:10229000F2E756F835301B0C99B22CF8081CE3B164
:1022A000DFF8B4902CF8062C4FEA840E4CF8042C7E
:1022B00009EB0E02CC465368C3B950600CEB0E0319
:1022C00058652A4B33F81420114423F8141000F0F9
:1022D000BDF870B10830C8F80400254A204B18F04A
:1022E000080F08BF134646F8353009E0536D5860B3
:1022F000E4E799F8243046F83500013389F82430B2
:10230000FFF72CFC42E7E0073AD5134A154C184872
:1023100011460223237001F8685B164BA832C3E90B
:102320000001C3E9032598609D61084B0D221A70D6
:10233000114AFF2313703B70157413710F4B9F22CA
:102340001A700123237007B0BDE8F08FC02007404A
:10235000044700004AF7FF1F54F6FF1FEC1000204F
:10236000C80040009420074098200740E410002057
:102370008800400000E0FF1F8820074084200740BD
:10238000210604D5084B0D221A7080233B70A2074A
:1023900005D5064A1378DBB2137002233B70E306BF
:1023A00044BF10233B70CEE7C02007408820074081
:1023B00008B5FFF775FB1E4A002311461846013386
:1023C000112BC1E9000001F10801F8D119490B688E
:1023D00043F480230B60184B80211970197809068B
:1023E000FCD41649C2F307200870C2F30740120E4E
:1023F00008750A76FF2201F81C2C01F8142C01F84C
:102400008C2C1A7842F040021A700D4A01230021E8
:10241000137082F86C1002F8103C0A4B70221A708C
:10242000A3F21F3308221A60074B10221A7008BD4E
:1024300000E0FF1F348004400C2107409C2007402F
:102440009420074023E400E00821074072B6094BBE
:102450001A684FF00041B2FA82F0C14022EA01024C
:102460001A6062B6044948234343581800225A5060
:1024700042607047E8F2FF1FA0E0FF1F0D4BC31A38
:10248000B3F5875F14D20C4A127822B10B4A127846
:102490000AB1FFF7DDBB72B609494822B3FBF2F37C
:1024A0004FF0004222FA03F30A6813430B6062B64E
:1024B000704700BFA0E0FF1F78F6FF1F98F6FF1FD0
:1024C000E8F2FF1F38B5104C236863B120684388D9
:1024D000C2180133157A02889A4212D8FFF7CEFF4C
:1024E0000023236004E0094B1B781BB94FF0FF3534
:1024F000284638BD0320FFF767FB20600028E5D1A0
:10250000F4E74380F4E700BF3CF7FF1F98F6FF1F96
:1025100010B50B4C236823B123686BB94FF0FF3023
:1025200010BD084B1B78002BF8D00320FFF74CFBA5
:1025300020600028F0D1F1E75A881344187AEFE7B9
:102540003CF7FF1F98F6FF1F044B9888044B1A684E
:102550001AB1138852889B1A18447047E41000205F
:102560003CF7FF1F2DE9F047DFF87C901D4E8046B9
:102570000D46002715B93846BDE8F08799F80030B8
:10258000002BF8D0336853B90320FFF71DFB3060F0
:102590000028F0D0038813B9FFF770FFF4E7D6F8EE
:1025A00000A05346BAF8021033F8084B641AAC4244
:1025B00028BF2C4622461944404601F02BFFBAF8AA
:1025C0000230A04427442D1B1C44BAF80030A4B2AA
:1025D000A342AAF80240CDD85046FFF74FFF002390
:1025E0003360C7E73CF7FF1F98F6FF1F10B5094B94
:1025F0001B786BB1084C206818B1FFF73FFF002330
:1026000023600320FFF7E0FA10B1FFF737FFF8E788
:1026100010BD00BF98F6FF1F3CF7FF1F2DE9F843E0
:10262000284C294F012680460D46267115B9257183
:1026300028460AE0A36803BB47F209593B7803F038
:10264000FF0223B922714FF0FF30BDE8F883042068
:10265000FFF7EAFA072805D82671FFF7F7FEA06012
:1026600058B92071B9F1010901D0237B13B10123BD
:102670002373E8E700F078F8E0E7A168002323730C
:102680004B88C3F14002AA4228BF2A4698180B443F
:102690004880AD1A073308EB0209C8450DD14B88B5
:1026A0003F2B06D940230B800420FFF70FFB0023AC
:1026B000A36005236373C846B8E718F8012B03F835
:1026C000012FEAE73CF7FF1F98F6FF1F07B501212E
:1026D0008DF807000DF10700FFF7A0FF03B05DF8CC
:1026E00004FB70B50F4B1B787BB10F4CA56801261E
:1026F00026715DB100266B88667329462B80042005
:10270000FFF7E4FAA6600023237170BDFFF79EFE79
:10271000014620B104206573FFF7D8FAF3E766732A
:10272000F1E700BF98F6FF1F3CF7FF1F38B50D4CCF
:10273000237903F0FF053BB9A16831B14B880B80C9
:102740000420FFF7C3FAA56038BDFFF77FFE0146FE
:1027500020B10420BDE83840FFF7B8BA0123637305
:10276000F2E700BF3CF7FF1F7047FFFF014801F091
:10277000B5BD00BF4CF7FF1F0B4B4CF220521A8027
:102780004DF628121A8000BF00BFD32223F80E2C6A
:1027900000221A814FF4B77223F80A2C4FF45852D2
:1027A00023F8082C704700BF0E20054070B50B4C75
:1027B000002684F8946004F19C00D4F8985001F04D
:1027C00084FD6B1CB3FBF0F202FB1030C4F89800E0
:1027D000C4F8086AC4F80C6A70BD00BF4CF7FF1F4C
:1027E00070477047104600F03FBF0846114600F0A2
:1027F000C5BEFFFF2DE9F04F844CDFF83C82844FCB
:1028000087B0FFF7B9FF00F0CAFF04F5216001F0BF
:102810007BFC01F0A7F800F0BAFF01F0E7FB002114
:1028200004F61C2000F091FB012384F8243A794B34
:102830001B7803F0FF05002B40F0CC8072B64AF203
:102840000263A8F800304BF28043A8F8003062B66B
:10285000714E724801F06AFC336817F8230001F0EA
:10286000F9F894F8243A9BB16D4984F8245A01F19F
:102870000C0000F064FC6B49A1F68C1001F0F8FC30
:1028800084F89450C4F89850C4F8085AC4F80C5A04
:1028900094F8943003F0FF0943B9634801F015FD43
:1028A00000283FD101F00EFA01F0ACF8574801F0D2
:1028B00069FD00B3012384F8943001F09DF8D0B98C
:1028C00005464FF015096268B5FBF9F352F823206D
:1028D00009FB135303EB430303F1090111441344B0
:1028E00028464A785B7A8978013501F0B9F8AA2D33
:1028F000E9D101F087F8FFF727FE002804DD012366
:1029000084F8943001F0F2FB444801F03DFC0028CB
:102910008DD0424801F043FCC0B2002849D1FFF7F6
:1029200045FF84E7414D2B680193019BD4F80C2AA5
:102930009A42BBD2D4F898103B4801F0C9FCD4F8B5
:1029400008BA824601F082F859460246504601F024
:1029500076FCD4F8083A34480133C4F8083AD4F87D
:10296000981001F0B5FCD4F8083AC2682E489A4293
:1029700098BFC4F8089AD4F8981001F0A9FCD4F8CC
:102980000C3A02691344C4F80C3A2B680293029B78
:10299000D4F80C2A9A4287D22B680393039D2248CD
:1029A000D4F8981001F094FC03691D44C4F80C5A43
:1029B0007AE701287FF43BAF33680522013393FBAC
:1029C000F2F202EB82029B1A336017F8230001F047
:1029D00041F82CE7164B174A1A60144B16491A682F
:1029E0000592059A4AF202640A324BF280401D6851
:1029F0000495049DAA4204D972B60C80088062B680
:102A0000F5E772B60D4B00221A70FEE74CF7FF1F78
:102A100094470000B8F6FF1FECF2FF1F5C01002096
:102A20006801002074010020E8F7FF1F50F6FF1F27
:102A3000FC1F0020464362740C200540082107401B
:102A40002DE9F843194D03242E464FF000082F1F9F
:102A500005F12009FFF7FAFC00F1080300F1480234
:102A600003F8018B9342FBD147F8040F4F45F1D196
:102A7000013C05F12805EAD1FFF7E8FC00F1080365
:102A800000F1480203F8014B9A42FBD1084B1A4669
:102A9000C3F8840042F8346B5A6003F15C029A6018
:102AA000044AC3F81C2ABDE8F88300BF58F7FF1F8B
:102AB0004CF7FF1F8447000038B5036804461B68C5
:102AC0009847236820465B680022052198472368C1
:102AD0000122FF219B682046984723680546DB6852
:102AE0002046984723682046DB689847236820469D
:102AF0001B68984723682046DB689847284638BDFE
:102B000038B5036804461B689847236820465B680D
:102B100000229F2198472368002211469B68204687
:102B2000984723680022054611469B68204698472F
:102B30002368012200219B6820469847236820468D
:102B4000DB689847284638BD036870B504461B68A3
:102B50009847236820465B6800229F219847236896
:102B60000022114620465B689847236800221146E0
:102B70009B682046984723680646012200219B68EF
:102B80002046984723680546DB682046984745EA73
:102B9000062080B270BDF8B5036804461B680D4678
:102BA0009847236800225B689F2120469847236846
:102BB000002211469B682046984723680022114650
:102BC0009B6807462046984723680002012286B288
:102BD0009B6800212046984723680643DB6820460F
:102BE0009847B6B2154A9DB913461978B94208D12B
:102BF0005988B14205D102EB0512537823710120A7
:102C0000F8BD0135072D03F11003EED10020F7E7E1
:102C1000114600234878A84209D11B01D118D35C82
:102C2000BB42F3D14B88B342F0D12571E7E70133C2
:102C3000072B01F11001EDD1E8E700BFA847000024
:102C400038B5036804461B689847236820465B68CC
:102C500000220521984723680122FF219B68204616
:102C6000984723680546DB682046984705F0010031
:102C700038BD036870B504461B680D469847236845
:102C8000002D20465B684FF0010214BF062104218D
:102C9000984723682046DB68BDE87040184710B5A8
:102CA000084A0079002311465478844203D101EB8D
:102CB0000313586810BD0133072B02F11002F3D142
:102CC0000020F7E7A847000010B5094A0079002363
:102CD00011465478844203D101EB0313188910BDC7
:102CE0000133072B02F11002F3D10020F7E700BFF8
:102CF000A847000010B5094A00790023114654780E
:102D0000844203D101EB0313988910BD0133072BD3
:102D100002F11002F3D10020F7E700BFA84700003E
:102D200010B5094A0079002311465478844203D132
:102D300001EB0313D88910BD0133072B02F11002F8
:102D4000F3D10020F7E700BFA847000038B50368BB
:102D500004461B680D46984723680122AB21204694
:102D60005B68984723682046DB6898475023013BFF
:102D7000FDD129462046BDE83840FFF70CBF036867
:102D800010B504461B68984723680122B9212046E4
:102D90005B68984723682046DB6898475023013BCF
:102DA000FDD110BD2DE9F04104460F4690461E4668
:102DB000FFF746FF0546002832D1236820461B68EE
:102DC000984723682A465B68032120469847236872
:102DD000C7F307415B682A46204698472368C7F334
:102DE00007215B682A46204698472368F9B25B684A
:102DF0002A4620469847771EAE4223680AD0791BA0
:102E00004A424A419B6800212046984708F805003D
:102E10000135F1E7DB68204698473046BDE8F08190
:102E20000026FAE7036870B504461B680D4616468F
:102E30009847236800225B68022120469847236850
:102E4000C5F307415B680022204698472368C5F315
:102E500007215B68002220469847236800225B68B0
:102E60001146204698470025EAB2A2F1FF012368E7
:102E70004A424A415B68715D204601359847B5F585
:102E8000807FF1D123682046DB68BDE87040184799
:102E9000036870B504461B680D46984723682046B2
:102EA0005B680022202198472368C5F3074120462C
:102EB0005B68002298472368C5F3072120465B68BA
:102EC00000229847236820465B68E9B201229847B0
:102ED00023682046DB68BDE870401847036870B57A
:102EE00004461B680D469847236820465B6800220D
:102EF000D82198472368C5F3074120465B68002224
:102F000098472368C5F3072120465B68002298474D
:102F1000236820465B68E9B201229847236820466F
:102F2000DB68BDE870401847036810B504461B68AD
:102F30009847236820465B680122C7219847236889
:102F40002046DB68BDE81040184738B504460D46FA
:102F500000F086FA23682046DB6898472946204619
:102F6000BDE83840FFF7F2BEFFF709BF72B6044B69
:102F70004AF202621A804BF280421A8062B67047AF
:102F80000C200540FF3148BF01F6FF710913481CB2
:102F900070474FF40070704701440879B0FA80F030
:102FA00040097047021D00F50173002012F8011B53
:102FB00001B901309A42F9D1704708B5FFF7F2FF25
:102FC000000308BD08B5FFF7EDFF28B17C28A8BFB6
:102FD0007C200003A0F5807008BDB1F5007F05D20C
:102FE00008440079431E58425841704700207047FA
:102FF000002238B50546144611462846FFF7EDFF76
:1030000000B101340132B2F5007FF5D1204638BD60
:1030100013B50446FFF7E1FF48B1042309030DEBA4
:10302000030219442068FFF7BDFE019800BA02B000
:1030300010BD13B50446FFF7D0FF50B109030123BB
:1030400001AA08312068FFF7ADFE9DF8040002B028
:1030500010BDFF20FBE708B5FFF7DAFFFF3048BFE0
:1030600000F6FF700013013008BD73B51546064623
:103070000C46FFF7CDFFFF3048BF00F6FF7000138E
:103080000130854210DC65B121030831022301AA19
:1030900001EB45013068FFF785FEBDF8044064BAD6
:1030A000A4B2204602B070BD4FF0FF34F9E72DE91D
:1030B000F341071D054600F501723B46002103F868
:1030C000011B9342FBD100264FF0020817F8013B89
:1030D00033B10136B6F5007FF8D102B0BDE8F0811A
:1030E00004230DEB030231032868FFF75BFE9DF814
:1030F0000430122BEDD19DF80530342BE9D19DF829
:103100000630562BE5D19DF80730792BE1D101240B
:1031100007F8014C31462846FFF77AFFFF3048BFD9
:1031200000F6FF70B4EB203FD3DC22463146284640
:10313000FFF79BFF2844013480F80480EAE7016030
:10314000FFF7B5BF2DE9F04104460E46FFF745FFF6
:103150000746002842D0012531462046FFF758FF98
:10316000FF3048BF00F6FF70B5EB203F4FF0010184
:1031700020681CDCFFF77DFD31462A462046D4F846
:103180000080FFF772FF01034046FFF781FE2068D1
:10319000FFF756FD014628B1FFF7E8FE0220FEF7D3
:1031A000EDFBF4E72068FFF764FD0135D4E7FFF796
:1031B00060FD31032068FFF76BFE2068FFF740FDDC
:1031C000014628B1FFF7D2FE0220FEF7D7FBF4E755
:1031D0002068FFF74EFD2046FFF769FF3846BDE83F
:1031E000F081F8B505460E4614461F46FFF7F5FE7A
:1031F00008B90020F8BD12F0FF0FFAD12846FFF7FA
:1032000007FF04F1FF038342F3DA24120134221191
:1032100031462846FFF729FF240206460121286887
:10322000FFF727FD04F470613A4601EB0631286888
:10323000FFF7F8FD2868FFF703FD014628B1FFF707
:1032400095FE0220FEF79AFBF4E72868FFF711FDD0
:103250004FF48070CEE72DE9F84F0A9C0646894668
:1032600015469846FFF7B9FE10B90020BDE8F88F63
:1032700030461719FFF7CCFE8742F6DCB4F5805FC5
:10328000F3DC05F580754FEA253B67195A46494638
:103290003046FFF7EAFE07F1FF3A4FEA2A3AC5F354
:1032A0000B05D34505EB003506D1A3B242462946AE
:1032B0003068FFF777FDD9E7494652463046FFF7B9
:1032C000D4FEC7F30B07E41B29468146A3B242464E
:1032D0003068FFF767FD3B46054608EB04024FEAFE
:1032E00009313068FFF75EFD2844BFE70430B1F5CF
:1032F000007F03DA435C1BB10131F8E74FF0FF3187
:10330000084670472DE9F04712F0FF07C0B00446A9
:10331000884615467DD1FFF755FEA84279DB6E46FB
:103320003246B146FF230137B7F5807F02F8013BF3
:10333000F9D1394A326000212ABA204686F808803D
:1033400072607372FFF7D2FFFF3548BF05F6FF7555
:1033500007462D1380464FF0010AAA45226823DC58
:1033600008F101012046FFF7C1FF01210312804649
:10337000F0721046B372FFF77CFC4FEA0831206808
:10338000FFF786FD2068FFF75BFC014628B1FFF7D9
:10339000EDFD0220FEF7F2FAF4E72068FFF769FC82
:1033A0000AF1010A0236D8E7012110463D03FFF772
:1033B00060FC29462068FFF76BFD2068FFF740FCA2
:1033C000014628B1FFF7D2FD0220FEF7D7FAF4E755
:1033D0002068FFF74EFC01212068FFF74AFC4A46AF
:1033E00029462068FFF71EFD2068FFF729FC0146EB
:1033F00028B1FFF7BBFD0220FEF7C0FAF4E7206812
:10340000FFF737FC2046FFF752FE384640B0BDE8D4
:10341000F0874FF0FF37F8E7123456790C4A0D4B1E
:10342000116811F4804F30B50B4D0C4C04D01A6864
:103430002A605B68236030BD41F4804040F00100A9
:103440001060186828605B6823601160F3E700BFB4
:1034500000C00240800900200CC0024010C00240A1
:103460000F4A1049136843F4805313600E4B4FF416
:1034700010721A604FF400730B6041F8082C0B4A6D
:1034800013600B4B0B4A1A6002F180425A600A4BE0
:103490000A4A1A601A6842F440621A60FFF7BEBF17
:1034A0003C8004401CB0044018B0044008B0044004
:1034B000800900200011F0B800C0024000001F8009
:1034C00038B505460C46FFF7CBFF002D0CBF002298
:1034D0004FF08062002C0CBF00234FF000731A43A2
:1034E000054B19681143196059680A435A60BDE8D1
:1034F0003840FFF793BF00BF8009002010B5044695
:10350000FFF7AEFF601EC0B2062898BF084B0949FE
:1035100098BF53F82020084B88BF4FF00042134358
:103520000B60064BBDE8104013434B60FFF776BFBE
:1035300018480000800900200011F0380011F078D0
:1035400038B50D461446FFF7D9FF002D0CBF0023F8
:103550004FF08063002C0CBF00224FF000721A4322
:10356000054B19681143196059680A435A60BDE850
:103570003840FFF753BF00BF800900200C4B0D4AB5
:103580001A600D4A4FF0004313600C4B1B781B046C
:10359000002903F4F81340EA030014BF00214FF0A0
:1035A0000041074B084318601368002BFCDA704792
:1035B00000C00240000C1F802CC00240F0F2FF1F30
:1035C00034C00240F8B5CB070D4607D504460021AC
:1035D00014F8010BFFF7D2FF013D20461C4B1D4A9A
:1035E0001A601D4B1D4E1A78052D94BF6C080324DC
:1035F0001204411902F4F81200EB4405A8420ED15E
:10360000174F164E17488D4212D3154A154BF4B179
:10361000116811F0F00FFBD01968013CF7E730F8A2
:10362000023B5BBA9BB2134343F010433360E5E7C0
:1036300035F8023B5BBA9BB2D7F800C01CF0F00F24
:10364000FAD0134343F0104333600368DBE7F8BD5F
:1036500000C00240000C1F80F0F2FF1F34C0024087
:103660002CC0024038C002400E4B0F4A1A600F4A6D
:103670004FF0004313600E4B1B7800284FEA0343C2
:1036800014BF00214FF0004103F4F8130B43094924
:1036900043F0FF030B601368002BFCDA064B18683D
:1036A000C0B2704700C00240000C1F802CC0024016
:1036B000F0F2FF1F34C0024038C00240CB072DE9B2
:1036C000F0410D4607D504460020FFF7CDFF04F872
:1036D000010B013D2046244B244A254E1A603378C5
:1036E000244A254C1B04052D03F4F81342EA030277
:1036F00094BF6908032100238B4202D0226001336A
:10370000FAE7A5EB4303DFF878E0DFF868C01A4F6B
:103710001A49C4180346A34213D2DEF8002012F05F
:10372000F00FFAD03278120402F4F81242EA0C02D6
:103730003A600A684FEA222803F8028B03F8012C4A
:10374000E9E728440D4C0E4D83420AD22A6812F054
:10375000F00FFBD02268111203F8021B03F8012CB2
:10376000F2E7BDE8F08100BF00C00240000C1F80FE
:10377000F0F2FF1FFFFF009034C0024038C002404B
:103780002CC00240C0F1FF011520FDF7CFBF002182
:103790000620FDF783BF01210620FDF77FBF08B596
:1037A00000210520FDF7A6FF00211420FDF7A2FF50
:1037B00001211520FDF79EFF01210620FDF79AFF4C
:1037C00001210920FDF796FF01210A20FDF792FF54
:1037D000FF20FFF7D7FFBDE80840FFF7DCBFFFFF82
:1037E00030B5164C164D236843F00203236063681E
:1037F00043F002036360134BA4F57C341860303C43
:10380000012098800023236065602381E36024F811
:10381000063C44F8041C0C4992B20A800A810B4A07
:103820001370852313700A4B09221A8002221A8012
:10383000084B1860084B187030BD00BF3C80044036
:1038400007B0064000900040169000400010024073
:103850001C90004000E100E088090020094B012293
:1038600089B218609A60D982D983A3F6E5730022E1
:103870001A7003F5852303F2F5734FF451721A6041
:10388000704700BF009000400F4A1049136843F48E
:10389000006313600E4B4FF451721A600D4A0023FF
:1038A0000C2013700B70487010208B7288704020B1
:1038B0004B718871084880210170417107490B7074
:1038C00008231370704700BF3480044000B00640E6
:1038D00010B0044003B006400BB0064013B00640E1
:1038E000014B5878704700BF88090020014B1878B9
:1038F000704700BF88090020014B00221A707047F2
:103900008809002008B5124B1A7802B301225A70B8
:10391000104A4FF4A27111600F4910220A604FF44F
:103920007A400138FDD10D4802604FF4C86001387B
:10393000FDD10A608022013AFDD140F2FF115868A2
:10394000FFF78CFF064A137843F08003137008BD1D
:103950008809002010B0044084F00F4088F00F4028
:1039600003B0064070B5144CFFF78EFF0025606869
:10397000012240F2FF11FFF733FF04F1080604F2C1
:10398000072329464FF4FF7204F20D40C4F80834AF
:10399000666084F80C5400F0D7FD2946304640F2AA
:1039A000FF1200F0D1FDFF2384F8075284F80B3694
:1039B000BDE87040FFF7A6BF880900200B4B0C49FB
:1039C00000221A700B7803F07F030B70094B93F8F9
:1039D0000C145A7039B15968D3F808045860C3F808
:1039E000081483F80C24FFF78DBF00BF1F80004030
:1039F00003B0064088090020014B93F80C0470477F
:103A0000880900200F4B93F80C24F0B5CAB90E4E6C
:103A100003F20D400121FF2740F2FF1410F801CB03
:103A200093F80B26D3F8085412FB0CF2B2FBF7F212
:103A300036F812206A540131A142EFD1012283F8F5
:103A40000C24F0BD88090020F2F2FF1F00487047E7
:103A5000950D0020014B83F80B0670478809002064
:103A600010B5054C00EB4000204480F80D1480F8A0
:103A70000E2480F80F3410BD88090020002310B5F3
:103A80001A46012440FA03F1C90742BFC3F10701F6
:103A900004FA01F10A4303F1010348BFD2B2082B33
:103AA000F0D1104610BD70B572B60E4C0822402100
:103AB00022600B46013BFDD10B4E002340FA03F57B
:103AC000ED074CBF326022600D46013DFDD1013350
:103AD000082BF3D1044A13608023013BFDD162B669
:103AE00070BD00BF88F00F4084F00F4070B572B613
:103AF000164A136843F080731360154A136843F045
:103B000001031360134A144B14681E6800222270CC
:103B10001A68921BBF2AFBD90122C021104214BF90
:103B2000012500252570C0311D68AD1B8D42FBD3DA
:103B30005200B1F5D86FD2B2F0D1012222701A68CA
:103B4000921BB2F5046FFAD362B670BDFCED00E0D3
:103B5000001000E0940F0020041000E00B4A08233E
:103B600070B5136005460E46094A013AFDD1094A6F
:103B70001360C023013BFDD10024B44204DA285D68
:103B8000FFF7B4FF0134F8E770BD00BF88F00F40C5
:103B90000071020084F00F402DE9F84F834600AF1A
:103BA0000D460A200121FDF779FD01210920FDF7CD
:103BB00075FD01210A20FDF79DFD01210920FDF77A
:103BC00099FD3B4B9A6C3B4B05EB45051A6005F1A3
:103BD000080323F00703ADEB030D002305F10108F3
:103BE0006E468DF800300BEB4B0BEA466D44AA4550
:103BF0000BF103091BD00BF10104E0B2FFF73EFF0C
:103C0000002CB8BF0BF580742412A4EB04148AF8BE
:103C10000100A4F11000C0B2FFF730FF8AF80200E3
:103C2000D220FFF72BFFCB460AF8030FDFE7224C29
:103C3000DFF88CB00822102322603220CBF800304D
:103C4000FDF79CFE72B61D4D4AF2026A4BF28049A6
:103C5000A5F800A0A5F8009062B641463046FFF7EF
:103C60007DFF0822102322604FF0030823606420A8
:103C7000FDF784FE72B6A5F800A0A5F8009062B624
:103C8000B8F10108F3D14FF008081025CBF80080F7
:103C9000CBF80050FFF77FFD6420FDF76FFEFFF7C4
:103CA00076FDC4F800802560BD46BDE8F88F00BFF2
:103CB000F0450000940F002084F00F400C200540D8
:103CC00088F00F40F8B5104F00240C263D46A2B2F4
:103CD000B2FBF6F306FB13233A689BB293420CBF88
:103CE000FF23002320461A4619460134FFF7B8FE89
:103CF000AA2CECD12B680C21013393FBF1F201FBD0
:103D000012332B60F8BD00BF980F0020014B01203B
:103D1000187070477001002010B50446FEF746FD8C
:103D200000232370012010BD38B5447903792404A1
:103D300004EB0364837904EB0324C3791C44B4F5D6
:103D4000807F054601DD002038BD0246417812F82B
:103D5000013B090401EB03618378C07801EB032187
:103D60000144A3B20448FFF71DF88442EBD1013CA3
:103D70002C700120E8E700BF68010020F7B5427908
:103D800003794178057AC779120402EB03628379DB
:103D900002EB03220378090401EB036183780446F4
:103DA000C0786E1C01EB032101440096631C3A4469
:103DB0000448FFF750FA86420ABF01200020257010
:103DC00003B0F0BD7401002038B542790379417821
:103DD000C579120402EB0362837902EB03220378B4
:103DE000090401EB036183780446C07801EB0321E9
:103DF000014404F108032A440548FFF7F2F9B0F53D
:103E0000807F4FF0000004BF2070012038BD00BF4C
:103E10007401002010B58378427801781B0403EB0D
:103E20000263C27803EB0223027904461A4409486C
:103E3000FFF768FA00280ADB03232370030E637080
:103E40000314A37003122071E370012010BD002041
:103E5000FCE700BF74010020437801781B0403EBEA
:103E60000163817803EB0123C178002202701944B9
:103E70000148FFF767B900BF7401002070B54578AD
:103E800003782D0405EB0365837805EB0325C378E0
:103E90001D44044629460A48FFF79FF8064610B914
:103EA0002070304670BD29460548FFF7C2F803234D
:103EB000237000236370A370E3702071F1E700BFEB
:103EC0007401002010B5002104460748FFF70EFAE0
:103ED00003232370030E63700314A3700312207175
:103EE000E370012010BD00BF7401002010B504462E
:103EF0000648FFF77DF803232370030E6370031455
:103F0000A37003122071E370012010BD7401002022
:103F100010B504460648FFF755F803232370030E37
:103F200063700314A37003122071E370012010BDAD
:103F30007401002010B504460648FFF73EF803233D
:103F40002370030E63700314A37003122071E370D7
:103F5000012010BD7401002038B50446FFF7CCFCE9
:103F6000FFF7BEFC05460028FAD1637820780321CC
:103F700003EB0020FFF710FEFFF7F4FC2570012093
:103F800038BDF8B50378452B044626D14378652B18
:103F900023D101211248134EFEF76BFE1048FEF7A5
:103FA000C3FF4AF202670E48FEF74AFE054648B1D3
:103FB00072B64BF280433780338062B66420FDF7DF
:103FC000DDFCF0E701460648FEF753FE06480449CB
:103FD000FFF7B5F825700120F8BD0020FCE700BF11
:103FE000680100200C20054074010020044B0022D1
:103FF0000121C3E90012C3E902221A61704700BF20
:104000009C0F002010B5FEF75DFAC0B2FF28154CDA
:104010004FF0000314D06268E360511C224402296F
:10402000616010750BDDA0686360A92807DC237D43
:10403000627DA17DFFF714FDA3680133A36010BD6D
:10404000C4E90133E3680133012BE36001D1FFF7D9
:10405000D9FCE368082BC1BF02232360002323613E
:10406000EDE700BF9C0F002038B51C4CFEF72AFA84
:104070002369C0B20BB9FF282ED05A1C23442261F9
:10408000D875E07D164B1978FF2903D1BDE838407B
:10409000FFF7ACBF814201D00C33F4E759688A4284
:1040A0001ADB9B680F489847054658B15020FEF729
:1040B0000DFB207EFEF70AFB217E0B480131FEF747
:1040C000ADFAE3E74620FEF701FB2846FEF7FEFACD
:1040D0002846FEF7FBFAD9E738BD00BF9C0F002049
:1040E000F4F4FF1FB40F0020B50F0020054B1B6830
:1040F000012B03D0022B03D0FFF778BFFFF782BF5D
:10410000FFF7B2BF9C0F002038B5074D04460221CF
:104110002878FDF7EFFA0221A878FDF7EBFA0223E1
:10412000C4E9003338BD00BFA8F5FF1F38B54368A8
:10413000144D022B044612D015F81300FDF7CCFAEB
:10414000636805EB43035B78834206D1A368B3F54C
:10415000FA7F01DA0133A36038BD02236360287857
:10416000FDF7BAFA6B7883420AD0A878FDF7B4FA63
:10417000EB788342F0D10123C4E900330023EAE75E
:104180000023F9E7A8F5FF1F0368022B05D080681C
:10419000A0F5FA7358425841704700207047034613
:1041A000022200681A60704710B586B004461023DA
:1041B0000846C4E9000211460093002202ABFFF753
:1041C0004AF89DF809309DF808201B0403EB0263B0
:1041D0009DF80A2003EB02239DF80B201344A360F3
:1041E0009DF80D309DF80C201B0403EB02639DF835
:1041F0000E2003EB02239DF80F201344E3609DF88B
:1042000011309DF810201B0403EB02639DF812206F
:1042100003EB02239DF81320134423619DF815300E
:104220009DF814201B0403EB02639DF8162003EB9A
:1042300002239DF817201344636106B010BD07B533
:104240008368AA2B01FB03F1A8BFAA2303EB430356
:10425000009301EB4101134601F11002D0E9000186
:10426000FEF7F9FF03B05DF804FB90F868097047AA
:1042700070B50025044680F868590160C0F864599B
:1042800018262068FEF785FEA8421ADD2946206818
:10429000FEF7A3FE98B129462068FEF7CAFE122851
:1042A0000DD1D4F86409216806FB00402A46043089
:1042B000FFF77AFFD4F864390133C4F86439013563
:1042C000DFE7012384F8683970BDD0F864097047CE
:1042D000182303FB010004307047FFFF70B51F4C2B
:1042E000236805465BB12068067A16F0C00313D038
:1042F000802B2CD0FEF7C2F80023236023E0184B5C
:104300001B7813B94FF0FF3070BD0120FDF742FC60
:1043100020600028E7D1F5E795F88E20DAB906F09D
:104320001F03082B06D81BB2AA6852F8231042F8C4
:1043300023000846FEF7A2F800232360B30602D547
:10434000012385F88E30012085F88D00DCE7437A63
:1043500085F88C30CEE71846D6E700BFE010002085
:1043600098F6FF1F064983680968026882B00191C8
:104370000199596241688260C0E9001302B0704738
:1043800050F6FF1F70B590F88C305A07044616D5CA
:1043900013F0080F4FF0400316D00C4A94F88E50DB
:1043A0001360002684F88D603DB12046FFF7DAFFE8
:1043B000012384F88E6084F89030284670BD90F810
:1043C0008D204023002AE8D1014AE7E7C4F00F40DE
:1043D000C8F00F4090F89000704770B50C4C002268
:1043E0001F2640F20335B2FBF6F300EB8301C3EB6B
:1043F0004313D1F88410D31A01EB430301325B89D4
:10440000AA424FEA530324F8023BECD170BD00BF2F
:1044100078030020844641EA000313F003036DD1C2
:10442000403A41D351F8043B40F8043B51F8043B77
:1044300040F8043B51F8043B40F8043B51F8043B7E
:1044400040F8043B51F8043B40F8043B51F8043B6E
:1044500040F8043B51F8043B40F8043B51F8043B5E
:1044600040F8043B51F8043B40F8043B51F8043B4E
:1044700040F8043B51F8043B40F8043B51F8043B3E
:1044800040F8043B51F8043B40F8043B51F8043B2E
:1044900040F8043B51F8043B40F8043B51F8043B1E
:1044A00040F8043B403ABDD2303211D351F8043BBE
:1044B00040F8043B51F8043B40F8043B51F8043BFE
:1044C00040F8043B51F8043B40F8043B103AEDD26D
:1044D0000C3205D351F8043B40F8043B043AF9D2BE
:1044E000043208D0D2071CBF11F8013B00F8013B91
:1044F00001D30B8803806046704700BF082A13D39E
:104500008B078DD010F003038AD0C3F10403D21AB5
:10451000DB071CBF11F8013B00F8013B80D331F8E9
:10452000023B20F8023B7BE7043AD9D3013A11F869
:10453000013B00F8013BF9D20B7803704B784370D4
:104540008B78837060467047F0B4860746D0541E5F
:10455000002A3CD0CAB2034602E014F1FF3436D33D
:1045600003F8012B9D07F8D1032C29D9CDB245EAD8
:1045700005250F2C45EA054533D9A4F11006360967
:1045800003F1200707EB061703F1100242E9045577
:1045900042E902551032BA42F8D1721C14F00C0FE5
:1045A00003EB021204F00F0613D0331F23F00303B2
:1045B0000433134442F8045B9342FBD106F0030436
:1045C0002CB1C9B21C4403F8011B9C42FBD1F0BCC6
:1045D000704734461346002CF3D1F8E714460346DF
:1045E000C2E71A462646E0E7080C0A090B0000005D
:1045F0004008FE4340A004404408FE4344A0044059
:104600000018FE4300C004403000FE4330900440D8
:104610003400FE43349004401C18FE431CC0044088
:104620001018FE4310C004400818FE4308C00440A0
:104630000C18FE430CC004400C10FE430CB00440A8
:104640001010FE4310B004401810FE4318B0044090
:104650001C10FE431CB004401410FE4314B0044070
:104660000418FE4304C004400010FE4300B00440A0
:104670000008FE4300A004400408FE4304A00440D8
:104680000C08FE430CA004400808FE4308A00440A8
:104690001418FE4314C004401818FE4318C0044008
:1046A0000410FE4304B004400810FE4308B0044068
:1046B0001400FE43149004404C08FE434CA00440F8
:1046C0000420FE4304D004402410FE4324B00440E0
:1046D0002010FE4320B004402810FE4328B00440C0
:1046E0002C10FE432CB004400020FE4300D00440B8
:1046F0004808FE4348A004401000FE4310900440C8
:104700001915191500010000D3F2FF1F1200000057
:104710000002000066F2FF1F6D00000000030000B1
:1047200062F2FF1F00000000010309044AF2FF1FAC
:10473000000000000203090434F2FF1F0000000023
:1047400003030904F2F1FF1F000000000403090441
:10475000CEF1FF1F0000000005030904A4F1FF1FB4
:10476000000000000603090486F1FF1F000000009E
:104770000000000000000000000000000000000039
:1047800000000000E1270000EB270000E527000003
:10479000E32700001E0000003C0000006400000051
:1047A00096000000FF000000EF0114400000100020
:1047B0000010000000011000EF0215400000200072
:1047C0000020000000022000EF031640000040001F
:1047D0000040000000044000EF041740000080008B
:1047E0000080000000088000EF0518400000000174
:1047F000000001000010000101061440000010003C
:10480000001000000001100001071540000020000A
:104810000020000000022000000000000100000055
:104820000200000003000000040001000500010078
:1048300006000100F8B500BFF8BC08BC9E467047F2
:0848400061110000412A000093
:04484800F8B500BF00
:10484C00F410002008001E034C006900670068008B
:10485C00740042007500640064007900200044007C
:10486C00460055002A034C0069006700680074007C
:10487C00420075006400640079002000460061006D
:10488C0064006500630061006E006400790024031D
:10489C004C006900670068007400420075006400F9
:1048AC00640079002000530065007200690061000B
:1048BC006C00180300000000000000000000000065
:1048CC0000000000000000000000000000000000DC
:1048DC0000000000000000000000000000000000CC
:1048EC0000000000000000000000000000000000BC
:1048FC000000000016034C0069006700680074009B
:10490C0042007500640064007900180342006C00DA
:10491C0069006E006B0069006E006C006100620043
:10492C0073000403090409026D0004010080FA08F5
:10493C000B0002020201040904000001020201043E
:10494C00052400100105240101010424020605249C
:10495C000600010705820310004009040100020A49
:10496C000000040705030240000007058402400014
:10497C00000904020001FF000005070501024000C8
:10498C00000904030000FE01010609210D10270097
:10499C0004010112010002EF020140501DAA602027
:1049AC000001020301000000FFFFFFFF04000000F4
:1049BC0004000000000000000000000000000000E7
:1049CC0000000000000000000000000000000000DB
:1049DC0000000100010001000100010001000100C4
:1049EC0002000200020002000200030003000300A8
:1049FC000300040004000400040005000500050089
:104A0C000500060006000600070007000700080066
:104A1C0008000900090009000A000A000A000B003E
:104A2C000B000C000C000D000D000E000E000F0012
:104A3C000F001000100011001100120012001300E2
:104A4C0013001400140015001500160017001700B1
:104A5C001800190019001A001A001B001C001C0079
:104A6C001D001E001E001F0020002100210022003E
:104A7C0023002400240025002600270027002800FE
:104A8C0029002A002B002B002C002D002E002F00BB
:104A9C003000310031003200330034003500360074
:104AAC003700380039003A003B003C003D003E0026
:104ABC003F004000410042004300440045004600D6
:104ACC004700480049004A004B004C004D004E0086
:104ADC004F0051005200530054005500560057002F
:104AEC0059005A005B005C005D005F0060006100D3
:104AFC006200640065006600670069006A006B0074
:104B0C006C006E006F007000720073007400760011
:104B1C00770079007A007B007D007E007F008100A9
:104B2C00820084008500870088008A008B008D003D
:104B3C008E009000910093009400960097009900CD
:104B4C009A009C009D009F00A000A200A400A5005C
:104B5C00A700A900AA00AC00AD00AF00B100B200E4
:104B6C00B400B600B700B900BB00BD00BE00C00069
:104B7C00C200C400C500C700C900CB00CC00CE00E9
:104B8C00D000D200D400D500D700D900DB00DD0066
:104B9C00DF00E100E200E400E600E800EA00EC00DF
:104BAC00EE00F000F200F400F600F800FA00FC0051
:104BBC00FE0000000100000003000000593F00004F
:104BCC0002000000010000000D3D0000100000007C
:104BDC0001000000353F0000110000000100000042
:104BEC00113F00001200000001000000ED3E00002B
:104BFC001300000001000000C53E0000140000007E
:104C0C00050000007D3E00001500000005000000BE
:104C1C00593E00001800000006000000153E000080
:104C2C001900000009010000C93D00001A00000035
:104C3C000A0000007D3D0000200000000300000081
:104C4C00833F00002100000009000000293D000006
:104C5C008000000001000000193D0000FF00000072
:0C4C6C0000000000000000000500140023
:0400000300001000E9
:00000001FF
